{
  "_format": "hh-sol-artifact-1",
  "contractName": "DonationVault",
  "sourceName": "DonationVault.sol",
  "abi": [
    {
      "inputs": [
        {
          "internalType": "address",
          "name": "_beneficiary",
          "type": "address"
        },
        {
          "internalType": "uint256",
          "name": "_hardCap",
          "type": "uint256"
        }
      ],
      "stateMutability": "nonpayable",
      "type": "constructor"
    },
    {
      "anonymous": false,
      "inputs": [
        {
          "indexed": true,
          "internalType": "address",
          "name": "donor",
          "type": "address"
        },
        {
          "indexed": false,
          "internalType": "uint256",
          "name": "amount",
          "type": "uint256"
        }
      ],
      "name": "Donation",
      "type": "event"
    },
    {
      "inputs": [],
      "name": "beneficiary",
      "outputs": [
        {
          "internalType": "address",
          "name": "",
          "type": "address"
        }
      ],
      "stateMutability": "view",
      "type": "function"
    },
    {
      "inputs": [],
      "name": "donate",
      "outputs": [],
      "stateMutability": "payable",
      "type": "function"
    },
    {
      "inputs": [],
      "name": "hardCap",
      "outputs": [
        {
          "internalType": "uint256",
          "name": "",
          "type": "uint256"
        }
      ],
      "stateMutability": "view",
      "type": "function"
    },
    {
      "inputs": [],
      "name": "totalReceived",
      "outputs": [
        {
          "internalType": "uint256",
          "name": "",
          "type": "uint256"
        }
      ],
      "stateMutability": "view",
      "type": "function"
    },
    {
      "inputs": [],
      "name": "withdraw",
      "outputs": [],
      "stateMutability": "nonpayable",
      "type": "function"
    },
    {
      "stateMutability": "payable",
      "type": "receive"
    }
  ],
  "bytecode": "0x608060405234801561001057600080fd5b5060405161066038038061066083398181016040528101906100329190610119565b816000806101000a81548173ffffffffffffffffffffffffffffffffffffffff021916908373ffffffffffffffffffffffffffffffffffffffff160217905550806001819055505050610159565b600080fd5b600073ffffffffffffffffffffffffffffffffffffffff82169050919050565b60006100b082610085565b9050919050565b6100c0816100a5565b81146100cb57600080fd5b50565b6000815190506100dd816100b7565b92915050565b6000819050919050565b6100f6816100e3565b811461010157600080fd5b50565b600081519050610113816100ed565b92915050565b600080604083850312156101305761012f610080565b5b600061013e858286016100ce565b925050602061014f85828601610104565b9150509250929050565b6104f8806101686000396000f3fe60806040526004361061004e5760003560e01c806338af3eed146100625780633ccfd60b1461008d578063a3c2c462146100a4578063ed88c68e146100cf578063fb86a404146100d95761005d565b3661005d5761005b610104565b005b600080fd5b34801561006e57600080fd5b506100776101bf565b6040516100849190610327565b60405180910390f35b34801561009957600080fd5b506100a26101e3565b005b3480156100b057600080fd5b506100b96102da565b6040516100c6919061035b565b60405180910390f35b6100d7610104565b005b3480156100e557600080fd5b506100ee6102e0565b6040516100fb919061035b565b60405180910390f35b6001543460025461011591906103a5565b1115610156576040517f08c379a000000000000000000000000000000000000000000000000000000000815260040161014d90610436565b60405180910390fd5b346002600082825461016891906103a5565b925050819055503373ffffffffffffffffffffffffffffffffffffffff167f5d8bc849764969eb1bcc6d0a2f55999d0167c1ccec240a4f39cf664ca9c4148e346040516101b5919061035b565b60405180910390a2565b60008054906101000a900473ffffffffffffffffffffffffffffffffffffffff1681565b60008054906101000a900473ffffffffffffffffffffffffffffffffffffffff1673ffffffffffffffffffffffffffffffffffffffff163373ffffffffffffffffffffffffffffffffffffffff1614610271576040517f08c379a0000000000000000000000000000000000000000000000000000000008152600401610268906104a2565b60405180910390fd5b60008054906101000a900473ffffffffffffffffffffffffffffffffffffffff1673ffffffffffffffffffffffffffffffffffffffff166108fc479081150290604051600060405180830381858888f193505050501580156102d7573d6000803e3d6000fd5b50565b60025481565b60015481565b600073ffffffffffffffffffffffffffffffffffffffff82169050919050565b6000610311826102e6565b9050919050565b61032181610306565b82525050565b600060208201905061033c6000830184610318565b92915050565b6000819050919050565b61035581610342565b82525050565b6000602082019050610370600083018461034c565b92915050565b7f4e487b7100000000000000000000000000000000000000000000000000000000600052601160045260246000fd5b60006103b082610342565b91506103bb83610342565b92508282019050808211156103d3576103d2610376565b5b92915050565b600082825260208201905092915050565b7f4361702065786365656465640000000000000000000000000000000000000000600082015250565b6000610420600c836103d9565b915061042b826103ea565b602082019050919050565b6000602082019050818103600083015261044f81610413565b9050919050565b7f4e6f742062656e65666963696172790000000000000000000000000000000000600082015250565b600061048c600f836103d9565b915061049782610456565b602082019050919050565b600060208201905081810360008301526104bb8161047f565b905091905056fea26469706673582212207a6131bdad26e94a11fcc165babe2bf2c6056edc05ef7bf276ee087f4e9b911264736f6c63430008130033",
  "linkReferences": {},
  "deployedLinkReferences": {}
}